:020000040800F2
:10000000800F0020010100087D0A00084F0600084B
:10001000790A0008BB0200088315000800000000F0
:10002000000000000000000000000000DD0E0008DD
:10003000B904000800000000A70D0008F10F000837
:100040001B0100081B0100081B0100081B01000820
:100050001B0100081B0100081B0100081B01000810
:100060001B0100081B0100081B0100081B01000800
:100070001B0100081B0100081B0100081B010008F0
:100080001B0100081B0100081B0100081B010008E0
:100090001B0100081B0100081B0100081B010008D0
:1000A0001B0100081B0100081B0100081B010008C0
:1000B0001B010008551000081B0100081B01000867
:1000C0001B0100081B0100081B0100081B010008A0
:1000D0001B010008011300081B0100088913000818
:1000E0001B0100081B0100081B010008DFF80CD0F1
:1000F00000F02EF80048004715250008800F00206A
:100100000648804706480047FEE7FEE7FEE7FEE7B1
:10011000FEE7FEE7FEE7FEE7FEE7FEE7F50F000875
:10012000ED00000830B50B460146002020220124D6
:1001300009E021FA02F59D4205D303FA02F5491BB5
:1001400004FA02F52844151EA2F10102F1DC30BDCB
:10015000064C074D06E0E06840F0010394E8070014
:1001600098471034AC42F6D3FFF7C4FF5C2F000869
:100170007C2F000870B58D1810F8014B14F00302A5
:1001800001D110F8012B231106D110F8013B03E037
:1001900010F8016B01F8016B521EF9D1ABB110F8E8
:1001A000012B04F00C048A1A0C2C03D0A2EB84124D
:1001B0009B1C08E010F8014BA2EB0422F8E712F8B0
:1001C000014B01F8014B5B1EF9D5A942D4D30020A5
:1001D00070BD0146C86C80B27047024600201368AB
:1001E0000B400BB1012000E000207047F0B5044641
:1001F0000D4600200021092D11DDE068A5F10A0659
:1002000006EB4607072606FA07F18843A5F10A061A
:1002100006EB460603FA06F10843E0600CE02069AD
:1002200005EB4507072606FA07F1884305EB450667
:1002300003FA06F108432061072A0FDA606B561EA5
:1002400006EB86071F2606FA07F18843561E06EBC3
:10025000860605FA06F10843606322E00D2A0FDAEC
:10026000206BD61F06EB86071F2606FA07F1884388
:10027000D61F06EB860605FA06F10843206310E058
:10028000E06AA2F10D0606EB86071F2606FA07F1C3
:100290008843A2F10D0606EB860605FA06F108432F
:1002A000E062F0BD21B1826842F4A002826003E006
:1002B000826822F4A0028260704700BFFEE700005F
:1002C00008B50121082000F08FFD0120ADF80000E5
:1002D00010208DF8030003208DF8020069460448C1
:1002E00000F0EBF800F0D2F800F076F808BD00005E
:1002F000000C014010B5002404E0601CC4B20120D1
:1003000001F032FF0121104800F062F908B1642CBD
:10031000F3DB002404E0601CC4B2012001F024FFE0
:100320000121094800F054F908B9642CF3DB2820B6
:1003300001F01AFF0121044800F04AF908B1012038
:1003400010BD0020FCE70000000C014070B5002447
:10035000002506E06006040EFFF7CCFF0443681C8E
:10036000C5B2082DF6DB204670BD2DE9FC410546DF
:100370000E461746984600F089F800F02DF830BB7D
:10038000002405E0FFF7E2FF0DF80400601CC4B292
:10039000052CF7DB9DF800009DF8011008449DF83E
:1003A000021008449DF8031008449DF80410884288
:1003B00010D19DF8000038709DF8010088F8000009
:1003C0009DF8020028709DF80300307002E00120C3
:1003D000BDE8FC810020FBE710B500F027F804E041
:1003E000601CC4B2012001F0BFFE01210E4800F0E4
:1003F000EFF808B1642CF3DB642C01DB012010BDA5
:10040000002404E0601CC4B2012001F0ADFE012113
:10041000054800F0DDF808B9642CF3DB642C01DB3F
:100420000120ECE70020EAE7000C014008B50121BB
:10043000082000F0D9FC0120ADF8000004208DF860
:10044000030003208DF802006946024800F035F8E9
:1004500008BD0000000C014008B50121082000F093
:10046000C3FC0120ADF8000010208DF8030003202C
:100470008DF802006946044800F01FF80121024887
:1004800000F0B1F808BD0000000C014010B5FFF706
:10049000E3FF0121074800F0A4F8132001F03EFE1D
:1004A0000121044800F09FF81E2001F05DFEFFF7D7
:1004B000BDFF10BD000C014070472DE9F041024620
:1004C00000250026002000230024002791F803C007
:1004D0000CF00F0591F803C00CF0100CBCF1000FEC
:1004E00003D091F802C04CEA050591F800C0BCF1B8
:1004F000000F31D0146800202BE04FF0010C0CFAF3
:1005000000F3B1F800C00CEA03069E4220D183003C
:100510004FF00F0C0CFA03F7BC4305FA03FC4CEA4E
:10052000040491F803C0BCF1280F06D14FF0010C70
:100530000CFA00FCC2F814C00AE091F803C0BCF148
:10054000480F05D14FF0010C0CFA00FCC2F810C0A6
:10055000401C0828D1D31460B1F800C0BCF1FF0FD3
:1005600034DD546800202EE000F1080C4FF0010843
:1005700008FA0CF3B1F800C00CEA03069E4221D140
:1005800083004FF00F0C0CFA03F7BC4305FA03FC91
:100590004CEA040491F803C0BCF1280F05D100F126
:1005A000080C08FA0CF8C2F8148091F803C0BCF1EA
:1005B000480F07D100F1080C4FF0010808FA0CF8B9
:1005C000C2F81080401C0828CED35460BDE8F081EA
:1005D0000246002093680B400BB1012000E0002090
:1005E00070474161704701617047000010B50446D3
:1005F0000723012221460948FFF7F8FD012107489A
:10060000FFF750FE00BF02210448FFF7E6FD002877
:10061000F9D00248FFF7DDFD10BD000000240140C5
:100620002DE9F04107460C460025002608E0384633
:10063000FFF7DCFF0544052001F070FD701CC6B219
:10064000A642F4DBB5FBF4F080B2BDE8F08100BF58
:10065000FEE770B502460024002500230020958A9D
:10066000138B1B0445EA030626F07F4404EA0106C7
:100670008E4201D1012000E0002070BD21B102882E
:1006800042F00102028004E002884FF6FE731A4035
:100690000280704700B585B00121480500F084FB59
:1006A0000121082000F0A0FBC020ADF800000320CD
:1006B0008DF802001C208DF8030069461148FFF7F1
:1006C000FCFE114800F024F80020ADF808004BF6BD
:1006D000FF70ADF80A003020ADF80C004FF48060D8
:1006E000ADF80E000001ADF810000848019001219E
:1006F0000548FFF7C3FF01A9034800F05BF805B008
:1007000000BD0000000C014000540040801A0600AB
:1007100010B504460B48844209D10121480500F078
:1007200053FB00214FF4001000F04EFB08E00121C4
:10073000880500F049FB00214FF4800000F044FBE5
:1007400010BD00000054004021B1028842F48072C4
:10075000028004E002884FF6FF631A40028070476F
:1007600021B1028842F40072028004E002884FF650
:10077000FF531A40028070470CB502460020002348
:100780000193009300920B0F019321F07F41019B95
:100790001BB1009B1433009303E0090C009B18333A
:1007A0000093009B1B680B400BB1012000E0002070
:1007B0000CBD00002DE9F04385B004460D4600262F
:1007C000B1460427DFF8CC80A6884FF6C0700640FB
:1007D000684600F019FBDDF808802F48B8FBF0F000
:1007E0001FFA80F946EA0906A68020884FF6FE71B6
:1007F0000840208000262949286888420CD82868AB
:100800004000B8FBF0F087B2042F00DA04273E4323
:1008100009F10100208427E0E8884BF6FF71884247
:1008200006D1286800EB4000B8FBF0F087B209E081
:10083000286800EBC00101EB0010B8FBF0F087B2B4
:1008400047F48047C7F30B0008B947F0010747F4A6
:10085000004006434FF4967009FB00F04FF47A71A4
:1008600090FBF1F0401C2084A683208840F001001A
:10087000208026884FF6F5300640A888698908430D
:1008800006432680A88929890843208105B0BDE850
:10089000F083000000127A0040420F00A0860100A1
:1008A00012B141F0010102E04FF6FE7319400182DE
:1008B000704701827047000070B504460D4600BFC6
:1008C0004FF400311C48FFF757FF0028F8D10121F1
:1008D0001948FFF739FF00BF18491748FFF7B9FE5D
:1008E0000028F9D0002278211348FFF7D9FF00BF74
:1008F00013491148FFF7ADFE0028F9D021460E48F4
:10090000FFF7D7FF00BF0E49891C0B48FFF7A1FE78
:100910000028F8D029460848FFF7CBFF00BF084958
:10092000891C0548FFF795FE0028F8D001210248F0
:10093000FFF716FF70BD00000054004001000300E7
:100940008200070008B50121082000F04DFA4FF49D
:100950007040ADF8000048208DF803006946024859
:10096000FFF7ABFD08BD0000000C014010B50446C8
:1009700014B101203E4908703D48007898B14FF409
:1009800080513C48FFF724FE68B9142001F0C6FBF3
:100990000020374908704FF480513648FFF718FEA1
:1009A00008B9012010BD3248007898B14FF40051C9
:1009B0003048FFF70DFE68B9142001F0AFFB0020AE
:1009C0002B4908704FF400512A48FFF701FE08B97F
:1009D0000220E7E72648007898B14FF48041254887
:1009E000FFF7F6FD68B9142001F098FB00202049BC
:1009F00008704FF480411F48FFF7EAFD08B9032053
:100A0000D0E71B48007898B14FF400411948FFF730
:100A1000DFFD68B9142001F081FB00201449087043
:100A20004FF400411348FFF7D3FD08B90420B9E79C
:100A30004FF480510F48FFF7CBFD012815D141033A
:100A40000C48FFF7C5FD01280FD181030948FFF7C6
:100A5000BFFD012809D1C1030648FFF7B9FD0128F0
:100A600003D10349087000209CE700BF9AE700000B
:100A700053000020000C014000BFFEE7704700005B
:100A800070B5002100230F22C47804B3154C2468EC
:100A900004F4E064C4F5E064210AC1F10403CA402F
:100AA000447804FA03F184781440214309010E4C80
:100AB0000678A155047804F01F050124AC400578A0
:100AC0006D11AD0005F1E025C5F8004109E004789D
:100AD00004F01F050124AC40044D0678761145F85A
:100AE000264070BD0CED00E000E400E080E100E095
:100AF00002490143024A1160704700000000FA05F4
:100B00000CED00E010B5002000F001F810BD70B54C
:100B10000646002415E004F1B001C8B200F033FD30
:100B2000002000F030FD102000F02DFD002504E035
:100B3000304600F02FFD681CC5B2802DF8DB601C2C
:100B4000C4B2082CE7DB70BD10B5FFF7A3FD64202D
:100B500001F0E4FAAE2000F016FD202000F013FDB5
:100B6000102000F010FDB02000F00DFDC82000F0B6
:100B70000AFD002000F007FD102000F004FD4020D9
:100B800000F001FD812000F0FEFCFF2000F0FBFCE6
:100B9000A12000F0F8FCA62000F0F5FCA82000F051
:100BA000F2FC3F2000F0EFFCA42000F0ECFCD3208E
:100BB00000F0E9FC002000F0E6FCD52000F0E3FCAA
:100BC000F02000F0E0FCD92000F0DDFC222000F055
:100BD000DAFCDA2000F0D7FC122000F0D4FCDB2095
:100BE00000F0D1FC202000F0CEFC8D2000F0CBFCEA
:100BF000142000F0C8FCAF2000F0C5FCFFF782FF16
:100C000010BD70B504460D4605F1B001C8B200F044
:100C1000BAFC102141EA141000F0B5FC04F00F01F9
:100C200041F0010000F0AFFC70BD00002DE9F04183
:100C300080460E46174600247D0131464046FFF7A8
:100C4000E0FF00BF06E00D49485D00F0A3FC6D1C0D
:100C5000601CC4B2102CF6DB701CC1B24046FFF71A
:100C6000D0FF002406E00549485D00F093FC6D1CB0
:100C7000601CC4B2102CF6DBBDE8F08154000020EB
:100C80002DE9F0470646894617469A464FF0000878
:100C900000240025BAF1010F03D0BAF1020F5ED192
:100CA00025E020E0785D203800F0FF087E2E04DD8E
:100CB000002609F1010000F0FF0949463046FFF720
:100CC000A0FF002409E008EB4801264A02EB41019D
:100CD000085D00F05FFC601CC4B2062CF3DBB01DA5
:100CE000C6B2681CC5B2785D0028DBD137E032E0BF
:100CF000785D203800F0FF08782E04DD002609F129
:100D0000010000F0FF0949463046FFF77AFF002452
:100D100007E004EB0811144A505C00F03BFC601C37
:100D2000C4B2082CF5DB09F10100C1B23046FFF76F
:100D300068FF002408E004EB081108310A4A505CFF
:100D400000F028FC601CC4B2082CF4DB06F108009B
:100D5000C6B2681CC5B2785D0028C9D100BF00BF0B
:100D6000BDE8F087342700085C29000870B5064606
:100D7000062415E004F1B001C8B200F004FC002024
:100D800000F001FC102000F0FEFB002504E03046DE
:100D900000F000FC681CC5B2802DF8DB601CC4B2FA
:100DA000082CE7DB70BD704729B1064AD2690243BF
:100DB000044BDA6104E0034AD2698243014BDA61F1
:100DC000704700000010024029B1064A1269024330
:100DD000044B1A6104E0034A12698243014B1A6111
:100DE000704700000010024029B1064A9269024390
:100DF000044B9A6104E0034A92698243014B9A6171
:100E0000704700000010024030B50021002200248D
:100E100000232D4D6D6805F00C0121B1042905D08A
:100E2000082923D105E0294D056022E0274D056002
:100E30001FE0254D6D6805F47012234D6D6805F4B3
:100E40008034022505EB92421CB9214D55430560C3
:100E50000BE01D4D6D6805F400351DB11C4D55436B
:100E6000056002E0194D5543056002E0174D05602D
:100E700000BF00BF144D6D6805F0F0010909154D64
:100E80006B5C0568DD4045600F4D6D6805F4E06101
:100E9000090A104D6B5C4568DD4085600A4D6D6840
:100EA00005F46051C90A0B4D6B5C4568DD40C560B7
:100EB000054D6D6805F44041890B074D6B5CC568B5
:100EC000B5FBF3F5056130BD0010024000127A0059
:100ED00000093D002000002030000020704710B5C0
:100EE00000F002F810BD00000CB500200190009049
:100EF0003348006840F480303149086000BF304812
:100F0000006800F4003000900198401C01900098A7
:100F100018B90198B0F5A06FF1D12948006800F424
:100F2000003010B10120009001E0002000900098F6
:100F3000012843D12348006840F01000214908608F
:100F40000846006820F0030008600846006840F08A
:100F5000020008601A48406819494860084640681D
:100F600048600846406840F4806048600846406831
:100F700020F47C1048600846406840F4E81048605F
:100F80000846006840F08070086000BF0C480068A8
:100F900000F000700028F9D00948406820F00300F4
:100FA000074948600846406840F00200486000BFBA
:100FB0000348406800F00C000828F9D10CBD00007F
:100FC0000010024000200240042808D14FF0E02128
:100FD000096941F004014FF0E022116107E04FF090
:100FE000E021096921F004014FF0E022116170470E
:100FF0007047000010B51348006840F00100114927
:10100000086008464068104908400E494860084694
:1010100000680E4908400B4908600846006820F443
:10102000802008600846406820F4FE0048604FF4C5
:101030001F008860FFF753FF4FF00060044908600D
:1010400010BD0000001002400000FFF8FFFFF6FE98
:1010500008ED00E010B500240121994800F03FF9A7
:1010600000287DD097480078401C964908700846B3
:101070000078052804D100F079FB00209149087020
:101080000020FFF773FC0446012C06D0022C23D06D
:10109000032C66D0042C1ED1FFE08B48007868B981
:1010A0000020FFF763FE89480078401C87490870DC
:1010B00008460078052801D1002008708248007891
:1010C000032807D18048007820B17F480078401C71
:1010D0007D4908700024EDE07C480078022802D1A8
:1010E00001207B49087079480078032810D17648A0
:1010F000007801280CD177480078401C75490870A9
:1011000008460078182801D10020087001F024F961
:101110006E480078032810D16B48007802280CD163
:101120006C484078401C6B494870084640783C2821
:1011300001D10020487001F00FF9644800780328BD
:1011400013D16148007804280FD162488078401C90
:101150006049887008468078182804D1002001E092
:10116000ADE02BE0887001F0F7F8584800780328CC
:1011700010D15548007805280CD15648C078401C3D
:101180005449C8700846C0783C2801D10020C87076
:1011900001F0E2F84C480078032804D101204D49C1
:1011A000087101F0D9F848480078062804D10120D8
:1011B0004849487101F0D0F800247BE043480078AA
:1011C000022802D1002042490870404800780328D4
:1011D00010D13D48007801280CD13E480078401ECF
:1011E0003C49087008460078182801DD0020087086
:1011F00001F0B2F835480078032810D13248007861
:1012000002280CD133484078401E324948700846C5
:1012100040783C2801DD0020487001F09DF82B4803
:101220000078032810D12848007804280CD12948D8
:101230008078401E2749887008468078182801DD8C
:101240000020887001F088F820480078032810D129
:101250001D48007805280CD11E48C078401E1D4945
:10126000C8700846C0783C2801DD0020C87001F035
:1012700073F815480078032804D100201549087137
:1012800001F06AF810480078062804D100201149BE
:10129000487101F061F800240CE00C480078032844
:1012A00006D1FFF72FFC08480078401C064908705B
:1012B000002400BF00BF0121014800F00DF810BD5F
:1012C00000040040740A00207B0A0020750A0020F8
:1012D000780A002046000020CA430282704730B5D9
:1012E0000246002000230024158A05EA010395899F
:1012F00005EA010413B10CB1012000E0002030BD6B
:1013000010B540F225511D4800F07AF810B31B4883
:1013100000F032F9C4B21A48008800F40040C8B99D
:101320001748008800F4804060B10A2C03D00020E8
:101330001349088020E01248008840F4004010491A
:10134000088019E00D2C06D10D48008840F480403B
:101350000B49088010E00A480088C0F30D000949D5
:101360000C5407480088401C05490880084600883E
:10137000C72801DD0020088010BD000000380140B2
:101380003C000020800A002010B540F22551124890
:1013900000F036F8F8B1104800F0EEF8C4B2312C85
:1013A00003D101200D4908703524322C03D10120CE
:1013B0000B4908703524332C03D1002007490870ED
:1013C0003524342C07D100200649087004490870E0
:1013D00002490870352410BD00480040780A0020FA
:1013E0007D0A00207C0A002021B1828942F400524B
:1013F000828104E082894DF6FF731A408281704732
:1014000070B50246002400230025002040F66A162D
:10141000B14200D100BFC1F3421501F01F03012604
:1014200006FA03F3012D02D19689334006E0022D1E
:1014300002D1168A334001E0968A33400C1201260D
:1014400006FA04F41688344013B10CB1012000E010
:10145000002070BDF0B503460024002600250020C2
:1014600040F66A17B94200D100BF1846C1F34214D2
:1014700001F01F06012707FA06F5012C01D10C30F7
:1014800004E0022C01D1103000E014301AB10768DA
:101490002F43076002E00768AF430760F0BD00001C
:1014A0002DE9F04786B005460E460024A24600BF4F
:1014B000A1460027B08900B100BF2F462C8A4CF608
:1014C000FF700440F08804432C82AC894EF6F31080
:1014D0000440B08831890843718908430443AC81D2
:1014E000AC8A4FF6FF400440B0890443AC8201A8A7
:1014F000FFF78AFC1F48874202D1DDF810A001E007
:10150000DDF80CA0A88900F4004040B10AEBCA0045
:1015100000EB0A1031684900B0FBF1F807E00AEB74
:10152000CA0000EB0A1031688900B0FBF1F86420B2
:10153000B8FBF0F004012009642101FB1089A8899F
:1015400000F4004040B1322000EBC900B0FBF1F0E4
:1015500000F00700044308E0322000EB091064218A
:10156000B0FBF1F000F00F0004432C8106B0BDE8A1
:10157000F08700000038014001468888C0F3080069
:10158000704700BFFEE710B5044621460020FFF774
:1015900093F910BD10B5044621464020FFF78CF9A1
:1015A00010BD00000FB4054B10B503A9044A029802
:1015B00000F02CF810BC5DF814FB0000F9240008C2
:1015C000380000200FB4084B10B504A902AA0398F4
:1015D00000F01CF8044602A9002000F0C1F82046E3
:1015E00010BC5DF814FB00006117000802E008C899
:1015F000121F08C1002AFAD170477047002001E08D
:1016000001C1121F002AFBD1704700002DE9FF4FD6
:1016100089B09B460446002506E025280BD05A4693
:101620000B999047641C6D1C20780028F5D10DB0F3
:101630002846BDE8F08F0027B8460122474900E060
:10164000074314F8013F203B02FA03F00842F7D1A8
:1016500020782E2819D114F8010F47F004072A2802
:101660000ED06FF02F022078A0F1300109290CD89C
:1016700008EB880102EB410100EB0108641CF2E772
:101680000A98641C50F8048B0A9020780028CED069
:10169000642808D0692806D075281ED05A460B99B0
:1016A00090476D1C58E00A994FF00A0901C90A9148
:1016B000002802DA40422D2102E0390504D52B2111
:1016C0008DF82010012103E0F90704D02021F7E76D
:1016D0008A4608AE0DE00021FAE70A994FF00A09A0
:1016E00001C90A91F7E74946FEF71CFD303106F8BB
:1016F000011D0028F7D1ADEB060000F120097807A5
:1017000001D44FF00108C84502DDA8EB090000E054
:1017100000208046002706E008A85A46C05D0B99C5
:1017200090476D1C7F1C5745F6DB04E030205A467D
:101730000B9990476D1CB8F10001A8F10108F5DC88
:1017400005E016F8010B5A460B9990476D1CB9F14C
:101750000001A9F10109F4DC641C65E70928010016
:101760000A68531C0B6010707047000008B5FEA09B
:1017700000680090FD480078052807D2DFE800F0F7
:101780000307F0EFEE000120F8490870FEE300F0D7
:101790005FFDF7480288F7A1F848FFF713FF02231F
:1017A000F64A00210820FFF76BFA172200212820B3
:1017B000FFF73CFAEE488278EEA1F048FFF702FF0F
:1017C0000223EE4A00213820FFF75AFA182200219E
:1017D0004820FFF72BFAE648C278E6A1E748FFF772
:1017E000F1FE0223E54A00215820FFF749FA1922A9
:1017F00000216820FFF71AFADD480279DDA1DF48F1
:10180000FFF7E0FE0223DD4A19463820FFF738FAD9
:101810000223DBA219464820FFF732FAD448427966
:10182000D4A1D648FFF7CEFE0223D44A1946502051
:10183000FFF726FA0223D2A219466020FFF720FA0A
:10184000CB488279CBA1CD48FFF7BCFE0223CB4A1F
:1018500019466820FFF714FA0C2202210020FFF736
:10186000E5F90D2202211020FFF7E0F91A220421E8
:101870000020FFF7DBF91B2204211020FFF7D6F927
:101880000223C0A204212020FFF7FAF902236A46AE
:1018900004213820FFF7F4F91C2204214020FFF72F
:1018A000C5F91D2204215020FFF7C0F90223B5A27B
:1018B00004216020FFF7E4F90223B3A20421782079
:1018C000FFF7DEF9B14BB24AB249B348FEF74DFD1E
:1018D000B1480278B1A1A948FFF774FE0223A74AD4
:1018E00004212820FFF7CCF9A9480278ABA1A3482E
:1018F000FFF768FE0223A14A04216820FFF7C0F920
:101900009B48C079082832D2DFE800F031040A1081
:10191000161C222B0E2202212020FFF787F926E039
:101920000F2202212020FFF781F920E0102202215E
:101930002020FFF77BF91AE0112202212020FFF777
:1019400075F914E0122202212020FFF76FF90EE052
:10195000132202212020FFF769F908E097E33AE01B
:1019600024E0142202212020FFF760F900BF00BF0D
:1019700000208B4908701E2206212020FFF756F90F
:101980001F2206213020FFF751F920220621402096
:10199000FFF74CF9212206215020FFF747F90223D7
:1019A00080A206217020FFF76BF98CE3222206212A
:1019B0002020FFF73BF9232206213020FFF736F9DC
:1019C000202206214020FFF731F921220621502054
:1019D000FFF72CF977E37448007801284FD100F025
:1019E00015FC262200212020FFF720F927220021C4
:1019F0003020FFF71BF92A2200214020FFF716F9BB
:101A00002B2200215020FFF711F96848027859A1D4
:101A10005A48FFF7D7FD0223584A04212020FFF738
:101A20002FF92A2204213020FFF700F95F4842787D
:101A300050A15248FFF7C6FD0223504A042140201E
:101A4000FFF71EF92C2204215020FFF7EFF857482A
:101A5000007928B9162206217020FFF7E7F804E084
:101A6000152206217020FFF7E1F8642000F056FBF4
:101A700002234CA204212020FFF702F906E34A4882
:101A80000078022851D100F0C1FB00F0BFFB2622F4
:101A900000212020FFF7CAF8272200213020FFF77D
:101AA000C5F82A2200214020FFF7C0F82B22002190
:101AB0005020FFF7BBF83D4802782EA12F48FFF7D2
:101AC00081FD02232D4A04212020FFF7D9F82A2284
:101AD00004213020FFF7AAF83448427825A127488E
:101AE000FFF770FD0223254A04214020FFF7C8F8C4
:101AF0002C2204215020FFF799F82C48007928B9AE
:101B0000162206217020FFF791F804E01522062125
:101B10007020FFF78BF8642000F000FB022321A265
:101B200004214020FFF7ACF8B0E21F4800780328FA
:101B30007AD100F06BFB00F069FB26220021202007
:101B4000FFF774F8272200213020FFF76FF82A22D0
:101B500000214020FFF76AF82B2200215020FFF7D8
:101B600065F81248027823E07F000000750A002023
:101B70003E0000202564202000000000480B0020CB
:101B80002D0000003A0000002500000005000020A4
:101B90000400002003000020020000202564000053
:101BA000790A0020202000007B0A00204600002047
:101BB000AFF24001FE48FFF705FD0223FC4A042175
:101BC0002020FFF75DF82A2204213020FFF72EF8AD
:101BD000F8484278AFF26401F548FFF7F3FC0223BE
:101BE000F34A04214020FFF74BF82C220421502017
:101BF000FFF71CF8EF48007928B91622062170205B
:101C0000FFF714F804E0152206217020FFF70EF804
:101C1000642000F083FA0223AFF2780206217020DC
:101C2000FFF72EF832E2FFE7E3480078042852D1AC
:101C300000F0ECFA282200212020FEF7F7FF2922ED
:101C400000213020FEF7F2FF2A2200214020FEF77B
:101C5000EDFF2B2200215020FEF7E8FFD5488278C7
:101C6000AFF2F001D248FFF7ADFC0223D04A0421C5
:101C70002020FFF705F82A2204213020FEF7D6FFA6
:101C8000CC48C278AFF21411C948FFF79BFC02237D
:101C9000C74A04214020FEF7F3FF2C2204215020E4
:101CA000FEF7C4FFC348407928B9162206217020E8
:101CB000FEF7BCFF04E0152206217020FEF7B6FFF8
:101CC000642000F02BFA0223AFF228120421202016
:101CD000FEF7D6FFDAE1B8480078052852D100F0C7
:101CE00095FA282200212020FEF7A0FF29220021BA
:101CF0003020FEF79BFF2A2200214020FEF796FFAE
:101D00002B2200215020FEF791FFAA488278AFF2E3
:101D10009C11A748FFF756FC0223A54A0421202066
:101D2000FEF7AEFF2A2204213020FEF77FFFA148F4
:101D3000C278AFF2C0119E48FFF744FC02239C4AD0
:101D400004214020FEF79CFF2C2204215020FEF7A6
:101D50006DFF9848407928B9162206217020FEF7B9
:101D600065FF04E0152206217020FEF75FFF642066
:101D700000F0D4F90223AFF2D41204214020FEF780
:101D80007FFF83E18C480078062852D100F03EFAAC
:101D9000282200212020FEF749FF2922002130209F
:101DA000FEF744FF2A2200214020FEF73FFF2B22AE
:101DB00000215020FEF73AFF7E488278AFF24C2196
:101DC0007B48FFF7FFFB0223794A04212020FEF71E
:101DD00057FF2A2204213020FEF728FF7548C278D9
:101DE000AFF270217248FFF7EDFB0223704A042125
:101DF0004020FEF745FF2C2204215020FEF716FF5D
:101E00006C48407928B9162206217020FEF70EFF93
:101E100004E0152206217020FEF708FF642000F080
:101E20007DF90223AFF2842206217020FEF728FFFD
:101E30002CE100F00DFA61480288AFF2C8215C483D
:101E4000FFF7C0FB02235A4A00210820FEF718FFC3
:101E5000172200212820FEF7E9FE58488278AFF2C9
:101E6000EC215348FFF7AEFB0223514A00213820F2
:101E7000FEF706FF182200214820FEF7D7FE4F4844
:101E8000C278AFF210314A48FFF79CFB0223484A60
:101E900000215820FEF7F4FE192200216820FEF7E9
:101EA000C5FE46480279AFF234314148FFF78AFB5C
:101EB00002233F4A19463820FEF7E2FE0223AFF222
:101EC000403219464820FEF7DBFE3C484279AFF22B
:101ED0005C313748FFF776FB0223354A194650201C
:101EE000FEF7CEFE0223AFF2683219466020FEF7FD
:101EF000C7FE32488279AFF284312D48FFF762FB8A
:101F000002232B4A19466820FEF7BAFE0C22022152
:101F10000020FEF78BFE0D2202211020FEF786FE28
:101F20001A2204210020FEF781FE1B22042110202A
:101F3000FEF77CFE0223AFF2B43204212020FEF72C
:101F40009FFE02236A4604213820FEF799FE1C22D8
:101F500004214020FEF76AFE1D2204215020FEF7D6
:101F600065FE0223AFF2E43204216020FEF788FE12
:101F70000223AFF2EC3204217820FEF781FE104BF1
:101F8000104A11491148FEF7F0F900E09BE00F48B4
:101F90000278AFF2F8310648FFF714FB0223044A37
:101FA00004212820FEF76CFE0648027810E00000AD
:101FB000480B0020460000207B0A00203E00002045
:101FC0000500002004000020030000200200002083
:101FD000AFF238413D48FFF7F5FA02233B4A0421AE
:101FE0006820FEF74DFE3A48C07908282FD2DFE876
:101FF00000F02E040A10161C22280E220221202096
:10200000FEF714FE23E00F2202212020FEF70EFE31
:102010001DE0102202212020FEF708FE17E0112209
:1020200002212020FEF702FE11E0122202212020D0
:10203000FEF7FCFD0BE0132202212020FEF7F6FD47
:1020400005E0142202212020FEF7F0FD00BF00BFB2
:10205000002020490870242206212020FEF7E6FDFA
:10206000252206213020FEF7E1FD20220621402016
:10207000FEF7DCFD212206215020FEF7D7FD0223CA
:10208000AFF2E04206217020FEF7FAFD1BE02F229E
:1020900006212020FEF7CAFD302206211046FEF759
:1020A000C5FD202206214020FEF7C0FD2122062189
:1020B0005020FEF7BBFD0223AFF21852062170201C
:1020C000FEF7DEFD00BF00BF08BD0000480B00208A
:1020D0003E0000207B0A002010B56FF00400FEF7E0
:1020E00073FF0A4800680A49B0FBF1F0094908701B
:1020F0000846007800EB4001C1EBC0104FF6FF71BD
:1021000001EAC0000449088010BD00000C00002056
:1021100000127A0034000020360000200146114AE7
:1021200012884A434FF0E0235A6100229A611A460E
:10213000126942F001021A6100BF4FF0E0221069FB
:1021400000F001021AB100F48032002AF5D04FF0FD
:10215000E022126922F001024FF0E0231A6100220E
:102160009A617047360000200146114A12784A43AE
:102170004FF0E0235A6100229A611A46126942F038
:1021800001021A6100BF4FF0E022106900F0010265
:102190001AB100F48032002AF5D04FF0E022126923
:1021A00022F001024FF0E0231A6100229A61704789
:1021B0003400002008B501210420FEF715FE402060
:1021C000ADF8000004208DF8030069460148FEF7D1
:1021D00074F908BD0008014008B501210420FEF78C
:1021E00003FE4020ADF8000003208DF8020010200F
:1021F0008DF8030069460448FEF75FF94021024864
:10220000FEF7EFF908BD00000008014010B5C1203D
:1022100000F0CCF80D490870C32000F0C7F80B4956
:102220004870C52000F0C2F808498870C72000F047
:10223000BDF80649C870C92000F0B8F80349087114
:10224000CB2000F0B3F80149487110BD46000020D2
:1022500010B500F059F82A48007800F00F0028491E
:102260000978091101EB810100EB410025498871D2
:102270002348407800F00F0021494978C1F302114A
:1022800001EB810100EB41001E4948711C48807838
:1022900000F00F001A498978091101EB810100EB68
:1022A0004100184908711648C07800F00F00144921
:1022B000C978091101EB810100EB41001149C87097
:1022C0000F48007900F00F000D490979091101EB61
:1022D000810100EB41000B49887009484079C871C1
:1022E0000748807900F00F0005498979091101EB51
:1022F000810100EB410000F5FA600249088010BD41
:102300004C0000203E00002010B5812000F04EF867
:1023100010490870832000F049F80E494870852064
:1023200000F044F80B498870872000F03FF8094915
:10233000C870892000F03AF8064908718B2000F037
:1023400035F8044948718D2000F030F80149887152
:1023500010BD00004C00002010B500218E2000F0C0
:1023600075F811480178C02000F070F80E484178E7
:10237000C22000F06BF80C488178C42000F066F8A9
:102380000948C178C62000F061F807480179C820E3
:1023900000F05CF804484179CA2000F057F8802129
:1023A0008E2000F053F810BD460000202DE9F041CA
:1023B00005462F460026002420212348FEF711F968
:1023C00080212148FEF70DF90320FFF7CDFE2021E3
:1023D0001D48FEF708F90320FFF7C6FE384600F057
:1023E00063F8FFF7E7FE0320FFF7BEFE00BF1AE029
:1023F0000320FFF7B9FE641080211348FEF7F3F8BD
:102400000520FFF7B1FE80210F48FEF7EAF81E20F5
:10241000FFF7AAFE40210C48FEF7DAF808B144F0B5
:102420008004701CC6B2082EE2DB0220FFF79CFE7F
:1024300020210548FEF7D5F840210348FEF7D1F8E2
:102440002046BDE8F0810000000801402DE9F04180
:1024500004460D4626462F4620211248FEF7C1F8B5
:1024600080211048FEF7BDF80120FFF77DFE2021F6
:102470000C48FEF7B8F80320FFF776FE304600F070
:1024800013F8384600F010F820210648FEF7A9F8A6
:1024900080210448FEF7A5F80320FFF765FEBDE89C
:1024A000F08100000008014070B50446002580213D
:1024B0001048FEF796F8FFF78FFE00BF16E0802168
:1024C0000C48FEF78EF804F0010020B140210948C5
:1024D000FEF789F803E040210648FEF782F88021E4
:1024E0000448FEF780F86410681CC5B2082DE6DBCE
:1024F00070BD00000008014000BF054A128802F0CC
:102500004002002AF9D0C2B2014B1B1D1A8070474D
:102510000038014000BFFFF7DFFD4FF4A060FEF779
:10252000E7FA4FF4165000F061F84FF4165000F03F
:10253000ADF8FDF7C5FEFEF705FAFEF705FB21A095
:10254000FFF730F86420FFF7E9FD4FF47A70FFF7EA
:10255000E5FD1EA0FFF726F84FF47A70FFF7DEFDC9
:10256000FEF7D0FA2DE01C480078012829D14FF45D
:10257000FA70FFF7D3FD0A210020FEF751F8174942
:1025800008804FF4FA70FFF7C9FD20211448FEF7C8
:102590001FF8B0B91348006808B9012000E0002016
:1025A000104908606420FFF7B9FD0F48D0F8B40166
:1025B00008B9012000E000200A4908606420FFF704
:1025C000ADFDD0E741463A333000000041373A30A4
:1025D0003030303300000000750A00200000002079
:1025E000000C0140B40122420000224210B586B026
:1025F0000446012144F20400FEF7F6FB4FF400709C
:10260000ADF8140003208DF8160018208DF817007F
:1026100005A91C48FDF751FF4FF48060ADF8140088
:1026200004208DF8170005A91648FDF746FF252060
:102630008DF8000003208DF801008DF802000120C4
:102640008DF803006846FEF71BFA01940020ADF8F0
:102650000800ADF80A00ADF80C00ADF810000C2031
:10266000ADF80E0001A90848FEF71AFF012240F25A
:1026700025510548FEF7EEFE01210348FEF7B4FEA2
:1026800006B010BD000801400038014010B586B00A
:10269000044601210820FEF7A7FB01218804FEF76C
:1026A00083FB4FF48060ADF8100003208DF812001A
:1026B00018208DF8130004A91C48FDF7FEFE4FF406
:1026C0000060ADF8100004208DF8130004A917482D
:1026D000FDF7F3FE00940020ADF80400ADF806000D
:1026E000ADF80800ADF80C000C20ADF80A00694602
:1026F0000F48FEF7D5FE01210D48FEF775FE0122B9
:1027000040F225510A48FEF7A5FE27208DF8140057
:1027100000208DF815008DF8160001208DF81700A7
:1027200005A8FEF7ADF906B010BD0000000C014091
:10273000004800400000000000000000002F0000E2
:1027400000000700070000147F147F1400242A7F74
:102750002A120062640813230036495522500000F3
:102760000503000000001C224100000041221C0063
:102770000014083E08140008083E0808000000A0E5
:1027800060000008080808080000606000000020E1
:1027900010080402003E5149453E0000427F4000BF
:1027A000004261514946002141454B310018141245
:1027B0007F10002745454539003C4A494930000112
:1027C0007109050300364949493600064949291E61
:1027D00000003636000000005636000000081422C3
:1027E00041000014141414140000412214080002C3
:1027F0000151090600324959513E007C1211127CE8
:10280000007F49494936003E41414122007F414114
:10281000221C007F49494941007F09090901003E06
:102820004149497A007F0808087F0000417F410044
:10283000002040413F01007F08142241007F4040BA
:102840004040007F020C027F007F0408107F003EA2
:102850004141413E007F09090906003E4151215E88
:10286000007F091929460046494949310001017F85
:102870000101003F4040403F001F2040201F003F1B
:102880004038403F006314081463000708700807CD
:1028900000615149454300007F41410000552A55E0
:1028A0002A55000041417F0000040201020400405B
:1028B000404040400000010204000020545454787D
:1028C000007F48444438003844444420003844449D
:1028D000487F00385454541800087E09010200183B
:1028E000A4A4A47C007F080404780000447D400078
:1028F000004080847D00007F102844000000417F5C
:102900004000007C04180478007C08040478003837
:102910004444443800FC242424180018242418FCBF
:10292000007C0804040800485454542000043F4428
:102930004020003C4040207C001C2040201C003CEB
:102940004030403C004428102844001CA0A0A07C3B
:10295000004464544C441414141414140000000073
:10296000000000000000000000000000000000F86F
:1029700000000000000000333000000000100C06D2
:10298000100C0600000000000000000040C078406D
:10299000C0784000043F04043F040400007088FC39
:1029A00008300000001820FF211E0000F008F00091
:1029B000E018000000211C031E211E0000F0088802
:1029C000700000001E2123241927211010160E006C
:1029D000000000000000000000000000000000E017
:1029E000180402000000000718204000000204182C
:1029F000E00000000040201807000000404080F088
:102A0000804040000202010F01020200000000F0BD
:102A1000000000000101011F010101000000000091
:102A20000000000080B07000000000000000000006
:102A3000000000000001010101010101000000008F
:102A40000000000000303000000000000000000026
:102A500080601804006018060100000000E0100803
:102A60000810E000000F102020100F00001010F8D8
:102A7000000000000020203F202000000070080817
:102A80000888700000302824222130000030088897
:102A9000884830000018202020110E000000C020BF
:102AA00010F8000000070424243F240000F80888E0
:102AB000880808000019212020110E0000E010886D
:102AC00088180000000F112020110E00003808089F
:102AD000C83808000000003F0000000000708808AF
:102AE00008887000001C222121221C0000E0100830
:102AF0000810E0000000312222110F00000000C089
:102B0000C000000000000030300000000000008025
:102B10000000000000008060000000000000804015
:102B2000201008000001020408102000404040402E
:102B30004040400004040404040404000008102081
:102B400040800000002010080402010000704808C6
:102B50000808F0000000003036010000C030C8282E
:102B6000E810E0000718272423140B000000C038E9
:102B7000E0000000203C23020227382008F8888863
:102B800088700000203F202020110E00C03008086F
:102B900008083800071820202010080008F8080846
:102BA0000810E000203F202020100F0008F888883F
:102BB000E8081000203F20202320180008F888880B
:102BC000E8081000203F200003000000C030080883
:102BD0000838000007182020221E020008F808000C
:102BE0000008F808203F210101213F20000808F8D3
:102BF000080800000020203F2020000000000808F6
:102C0000F8080800C08080807F00000008F888C0B5
:102C100028180800203F20012638200008F8080066
:102C200000000000203F20202020300008F8F8009D
:102C3000F8F80800203F003F003F200008F830C0AF
:102C40000008F808203F200007183F00E01008089F
:102C50000810E0000F10202020100F0008F80808CE
:102C60000808F000203F210101010000E0100808E1
:102C70000810E0000F18242438504F0008F8888806
:102C800088887000203F2000030C302000708808E6
:102C9000080838000038202121221C00180808F8F4
:102CA000080818000000203F2000000008F8080075
:102CB0000008F808001F202020201F000878880046
:102CC00000C83808000007380E010000F80800F8B6
:102CD0000008F800033C0700073C03000818688060
:102CE0008068180820302C03032C30200838C800D6
:102CF000C83808000000203F200000001008080825
:102D0000C83808002038262120201800000000FEC6
:102D1000020202000000007F40404000000C30C072
:102D200000000000000000010638C000000202029E
:102D3000FE000000004040407F0000000000040250
:102D4000020204000000000000000000000000007B
:102D5000000000008080808080808080000202046B
:102D60000000000000000000000000000000808063
:102D7000808000000019242222223F2008F80080D1
:102D800080000000003F112020110E000000008094
:102D900080800000000E1120202011000000008023
:102DA0008088F800000E112020103F200000808055
:102DB00080800000001F222222221300008080F069
:102DC000888888180020203F202000000000808094
:102DD00080808000006B94949493600008F80080D9
:102DE00080800000203F210000203F200080989834
:102DF000000000000020203F202000000000008094
:102E00009898000000C08080807F000008F80000D3
:102E100080808000203F24022D302000000808F828
:102E2000000000000020203F2020000080808080E3
:102E300080808000203F20003F20003F8080008075
:102E400080800000203F210000203F200000808083
:102E500080800000001F202020201F008080008034
:102E60008000000080FFA12020110E0000000080E3
:102E700080808000000E112020A0FF8080808000D4
:102E80008080800020203F21200001000000808001
:102E9000808080000033242424241900008080E0F6
:102EA000808000000000001F2020000080800000C3
:102EB00000808000001F202020103F2080808000A4
:102EC0000080808000010E300806010080800080B4
:102ED000008080800F300C030C300F0000808000D9
:102EE000808080000020312E0E3120008080800004
:102EF0000080808080818E701806010000808080B4
:102F0000808080000021302C222130000000000051
:102F1000807C020200000000003F404000000000F2
:102F2000FF00000000000000FF0000000002027C23
:102F3000800000000040403F00000000000601014A
:102F4000020204040000000000000000001CE01861
:102F50000408300000000718202010007C2F000813
:102F600000000020800A000074010008CC34000832
:102F7000800A002000050000FC150008A200016086
:102F800004A24A040B600901020304060708090CA5
:102F9000611000061C020406080001104001908C1C
:102FA000848484F48586848494E484948C008040B2
:102FB0002018068180407F9088848280F000403C09
:102FC00010FF101020108F7808F808F80000020693
:102FD00002FF0101044221184681403F882009FC7C
:102FE0000404FC00FE9292032198201F0F04040F9A
:102FF00002FE42220E1222528A8200202010F0A8E5
:10300000A4AAB1A2A4A8F0102020BA102CFF8242DA
:10301000220A0A12122B4480000080809E92929213
:103020009EE0809EB2D2929E80000808F494929214
:10303000F10001F2929494F8BF1009F801222022C5
:103040002AF222012202612019FF00001F01017FE4
:1030500009110F40807F000020102CE7242400F08D
:1030600010A716F000111C401A211100070202FFE0
:103070000202070000404042CC0040A09E828282B3
:103080009EA080100C3F908840432C102846418021
:103090008110081715D55557557D042004D51517EF
:1030A000304004407F5501127F0C101400E01804DA
:1030B00002022111F9010102020418E000030CC60A
:1030C000100640404F4040DA430C0320900611099F
:1030D0000989712090064C4A494848209006098980
:1030E000C92919204006444848494620154210067F
:1030F000BE2A2A2AEA04363ED81004444249012254
:103100007F0517414050140A04FF242424FF0400C3
:10311000FE021500140E88482F090919AF48300F18
:1031200002428200C280010511E382080111FDC242
:10313000100111608284011952C2200135E072042D
:1031400004197820057F282423251221901580104A
:10315000080002424242C27E05340542C2020240D9
:103160002004407847063640404150600421222C1C
:10317000505240F716014F3660A0213C32FE061532
:10318000704380802125481640A01680B916FEBDE8
:10319000410629313C0440300F01035EFF0903144E
:1031A00004101116FA100510101413CE101100811E
:1031B00081414121110D030D112141418181D11026
:1031C0000418C7440122FC0511E011C612070423AC
:1031D00004FF053E044303255A3101295F215F3274
:1031E0000201355F3120317F11815D7A0332FFDECC
:1031F0003340408110051060028C2319C44D000338
:10320000140604047E01400F127E0227427EC1167E
:10321000FCC02005FC25262408240F040040308F24
:1032200080844C55252525554CB03140413F714097
:1032300018044448507C0005207F504844401D82BB
:1032400003600AF8888C8A89888888F8A04244013B
:1032500031A010044044C4FA3E401F032D20032C2B
:103260000D103C131014B840300E014080C00324F0
:103270000E1010D0FF9014E4AFA4A4A4AFE4201E5D
:10328000036203100A894B2A1A0E1A2A4B88A023BC
:103290001090013D5F0315691921280460203F3912
:1032A00035A12173119F11A1190E2B23220F553B1C
:1032B000454402200280260C9E3345C6B42F140CD0
:1032C00080041E1E6003327FC419401F00FCA0044E
:1032D0004AFCB711431DBE03114811383F0106FFD8
:1032E0000321195805FF109004A12008040004448C
:1032F000827F01F8311E0A4000403D80048C042288
:10330000A2FA8004600708040211201F63011DA0B7
:10331000114014080600F0121212F2185DC00440A9
:1033200007001F1111111F4011F01C04908886C660
:10333000032B838CF1311144041807001D3D110447
:1033400018044244586C38064040504846609A047D
:10335000BF3E04300319291AC3343D30031DF10464
:1033600029EF667F3F3D0005380A004A32222AF1E4
:1033700021312DE1340D3F408081BDA1A1BFA1A12C
:10338000BD81401C0C9020984828090E2848A81898
:10339000CF034F817F95032DD4031141680F03059F
:1033A0000911FF118905C300E000F0006400083A2C
:1033B0004428FF11AA440001500B83013844829233
:1033C000927401831110067C44C7017D019105555B
:1033D000A49201027DF506023B017E81419149F2F2
:1033E000010181AF3DF503200400006D01200400C0
:1033F000006001711501620122DB0101150722DA6B
:103400000120040000D80120040000C001011507BC
:103410000D1625060520AF2206010118071004E647
:1034200066200762861572861C228601100A80803B
:103430008686068686C0C00C00061C0606D030763E
:103440004D2107092F501C05601C00FEFF088C0F42
:1034500000C41820029E63B20E00FF8181FFF003BA
:103460007C0BFF0023EAAABFAAEA033F3A0609251C
:10347000A96D5707051B3A58040E0C084039B029AE
:10348000B4100581808081021572B117F406010124
:10349000090C0EDF0214C0011C0500001E21FB03F5
:1034A00073215E080928324005FFFFC1C1040123D2
:1034B0002DC41580FCF3EFF3FC80FF80EEEEEEF5FB
:0C34C000FBFF9CBEB6B6882A000000008E
:04000005080000ED02
:00000001FF
